:020000040800F2
:10000000000002208D5D0008C15D0008C15D000890
:10001000C15D0008C15D0008C15D0008000000006E
:10002000000000000000000000000000515C00081B
:10003000C15D000800000000F75C0008575D000883
:10004000C15D0008C15D0008C15D0008C15D000818
:10005000C15D0008C15D0008C15D0008C15D000808
:10006000C15D0008C15D0008C15D0008C15D0008F8
:10007000C15D0008C15D0008C15D0008C15D0008E8
:10008000C15D0008C15D0008C15D0008F1330008D2
:10009000F5330008C15D0008E5330008C15D0008C4
:1000A000C15D0008C15D0008C15D0008C15D0008B8
:1000B000C15D0008C15D0008C15D0008C15D0008A8
:1000C000C15D0008C15D0008C15D0008C15D000898
:1000D000C15D0008C15D0008C15D0008C15D000888
:1000E000C15D0008C15D0008C15D0008C15D000878
:1000F000C15D0008C15D0008C15D0008C15D000868
:10010000C15D0008C15D0008C15D0008C15D000857
:10011000C15D0008C15D0008C15D0008C15D000847
:10012000C15D0008C15D0008C15D0008C15D000837
:10013000C15D000800000000000000000534000858
:1001400009340008C15D0008F9330008C15D0008EA
:10015000C15D0008C15D0008C15D0008C15D000807
:10016000C15D0008C15D0008C15D0008C15D0008F7
:10017000C15D0008C15D0008C15D0008000000000D
:1001800000000000C15D0008000000000000000049
:10019000C15D00080000000000000000C15D000813
:1001A000000000000000000000000000C15D000829
:1001B000C15D0008C15D0008C15D0008C15D0008A7
:1001C000C15D000810B5054C237833B9044B13B159
:1001D0000448AFF300800123237010BDB00C002051
:1001E00000000000883E04080C4B43B10C480D4948
:1001F00010B5AFF300800C48036823B910BD0A485E
:10020000036833B97047094B002BF7D0BDE81040A5
:100210001847064B002BF5D0184700BF0000000020
:10022000883E0408B40C0020A80C00200000000048
:1002300003690068013A013903FB012100EBC100A9
:10024000704700002DE9F84FCB680D6905618846BD
:1002500090E806005D43C360531ADB109D420446DC
:1002600057D98168ED1A891AB5EBE10F4FF0000AF2
:100270004FF0000B09D811462B46013BE1E802ABD9
:10028000FBD102EBC505656031E06FF06042D11A29
:100290008D4202D9244813F007FBAB422CBFDE1875
:1002A0005E19B34202D8B6F1005F36D31646F000AD
:1002B00005F078FC814694E882007F1AFB0803D0A1
:1002C0003A4648462FF0D6FC4F443A462B46013B6F
:1002D000E2E802ABFBD1206807EBC50708B105F0E7
:1002E0007DFC09EBC606C4F800906760A660236930
:1002F000E06858430023834213D0D8F800102268E6
:10030000DD002944D1E900672A44C2E900670133CE
:10031000F1E7ECD201EBC505B5E7002EC7D1B14638
:10032000C9E72046BDE8F88F0CED03080CB437B5DB
:10033000DDE906450268C168006908ABC2E900450D
:100340004843019308320121884209D9073323F039
:100350000703D3E900450131E2E802450833F3E73A
:1003600003B0BDE8304002B0704710B504460068E5
:1003700008B105F033FC204610BD38B50446081E10
:100380004FEAC00507D0B0F1005F01D313F054FA73
:10039000284605F007FC206060602844A06038BD56
:1003A00070B50D4649682B68C91A00230360436085
:1003B0008360C9100446FFF7E0FF29686E68236870
:1003C000761AF20804D0184632462FF053FC034642
:1003D0001E44EB68E3602B6966602361204670BDB4
:1003E000F8B50023044616460360436083600D465B
:1003F000FFF7C3FF2168D6E900672B460A461BB109
:10040000E2E80267013BFAE701EBC50161602046C3
:10041000F8BD0000000000002DE9F04F91462DEDE1
:10042000028B0A69D9F80C309A4289B080460D4691
:1004300005D02F492F4812F0F9FB12F083FAD9F8B2
:100440001040EE689FED288B05AB04FB06F106AA71
:1004500040468DED068BFFF7C3FFC8F80C60EB68D4
:10046000C8F8104000930124009BA34235D3D9F86B
:10047000103003930126039B9E422CD82B690193D5
:100480005BEC18AB0127019BBB421BD33A462146CC
:100490002846FFF7CDFE3946029032464846FFF720
:1004A000C7FE0299D0E90023D1E900012CF058F9E8
:1004B00002460B46504659462BF0A0FF01378246B4
:1004C0008B46E0E7324621464046FFF7B1FE013653
:1004D000C0E900ABCFE70134C6E7404609B0BDEC48
:1004E000028BBDE8F08F00BF00000000000000009C
:1004F00026ED0308402600202DE9F04D0646244B4A
:1005000046F8043B86B004460125032704F1180889
:100510004FF0000A4FF0000B02AB04AA0321304653
:10052000CDE904ABFFF75CFF01AB02AA39462761B6
:1005300065614046CDE902ABFFF752FF2A462946E6
:100540006762A5624046FFF773FE2A46E062022119
:100550004046FFF76DFE2A46206339464046FFF7C6
:1005600067FE2A46606329463046FFF761FE2A4649
:10057000A06302213046FFF75BFE2A46E06339465E
:100580003046FFF755FE2064204606B0BDE8F08DEA
:1005900000ED0308000000002DE9F04F2DED028B67
:1005A000ADF5157D42A8FFF7A7FF5F4B429354A31B
:1005B000D3E90023CDE9542353A3D3E9002342A96F
:1005C00016A80126CDE9562300F0C6FB04232A21F4
:1005D0008DE848002B224FF4007358A800F0C8FEA5
:1005E0004BA3D3E90023DFF85891504D06964FF006
:1005F00000080024CDE90023CDE9044500224C4B3E
:10060000DFF840B1CDE9028920A89FED438B00F0CF
:100610005FFF4FF400631D221E210496CDE90245C1
:10062000CDE9008930A800F03BFB11AB0AAA0321F9
:100630000CA88DED0A8BFFF7D3FE032316A80F93AA
:10064000109600F099FBCDE908894FF0000A16A832
:1006500000F0DAFB52465B462CF0ACF930A3D3E94C
:100660000023804689462CF0A5F906460F463DF04A
:1006700073F9DDE9082304460D46404649462CF04F
:100680006FF83DF069F980468946304639463DF0BD
:100690001BF9002206460F46264B404649462CF0E1
:1006A0005FF832463B462CF05BF822462B462BF097
:1006B000A5FE0022204B2BF0A1FE11A3D3E90023BD
:1006C0002CF04EF804460D4611A816A900F05EFC69
:1006D00011A8FFF74AFE16A88DED028BCDE9004563
:1006E0000022002300F0CAFBCDE90045519B1348CE
:1006F000D3E900232FF070FB16A800F03FFBA6E71C
:1007000066666666666649407B14AE47E17AB43F2A
:100710009A9999999999B93F00000000000000004A
:100720009A9999999999E93F64ED03080000E0BF0F
:100730000000444000000C400000144070ED03082D
:100740000000E03F000079402DE9FF470E69CF68C7
:10075000054690469946002200230C46CDE9022327
:1007600006FB07F101AB02AAFFF73AFE2E61EF602C
:10077000E3682269002602FB03FA56450ED023687F
:100780002F68F1000F441944D1E9000142464B465D
:100790002CF010F90136C7E90001EEE7284604B055
:1007A000BDE8F0872DE9F04F9DB0002400250746F5
:1007B0008B469046994606AA17AB032108A8CDE9B7
:1007C0000645FFF70DFEDDE92823CDE90223DDE92B
:1007D00026230326CDE900234FF0010A42464B466B
:1007E00008A80B96CDF830A0FFF7A0FD1CAA314653
:1007F00062E9184517AB0DA8FFF7F2FD164BCDF8CF
:1008000040A00022CDE900230DA82B462246CDE9C9
:1008100002451196FFF78AFD08A912A8FFF7C0FD4F
:1008200012AA0DA917A8FFF7F7FDDBE9122317A9F4
:100830003846FFF789FF17A8FFF797FD12A8FFF7C3
:1008400094FD0DA8FFF791FD08A8FFF78EFD38462F
:100850001DB0BDE8F08F00BF0000F03F2DE9F04172
:1008600096B00646002400250F46904611AB04AA18
:10087000032107A8CDE90445FFF7B2FD01230A9340
:1008800003230B93134B0022CDE9002307A82B462B
:100890002246CDE90245FFF749FD41460CA8FFF786
:1008A0007FFD0CAA07A911A8FFF7B6FDD7E912230F
:1008B00011A93046FFF748FF11A8FFF756FD0CA815
:1008C000FFF753FD07A8FFF750FD304616B0BDE80F
:1008D000F08100BF0000F03F2DE9FF470E69CF68AF
:1008E000054690469946002200230C46CDE9022396
:1008F00006FB07F101AB02AAFFF772FD2E61EF6064
:10090000E3682269002602FB03FA56450ED02368ED
:100910002F68F1000F441944D1E9000142464B46CB
:100920002BF01EFF0136C7E90001EEE7284604B0B0
:10093000BDE8F0872DE9F0430C4689B01146054625
:1009400002A89046FFF72CFDE268059B9A4236D13B
:100950002669069BF31A5E425E4102A8FFF705FD79
:100960002EB91A491A4812F061F911F0EBFF266905
:10097000E76800220023CDE9022306FB07F101AB63
:1009800002AA2846FFF72CFD2E61EF60E36822697A
:10099000002602FB03F94E4513D023682F68F200AE
:1009A0009918D8F8003013441744D1E90001D3E96D
:1009B00000232BF023FD0136C7E90001EBE70026F9
:1009C000CBE7284609B0BDE8F08300BF42ED03083D
:1009D000402600202DE9F0439BB00C4680460026BF
:1009E0000027914615AB04AA032106A8CDE90467A8
:1009F000FFF7F6FC0323099301230A93244B0022FB
:100A0000CDE90023CDE902673B46324606A8FFF751
:100A10008DFC49460BA8FFF7C3FC0BAA06A910A83A
:100A2000FFF7FAFC251DD4E9122310A915A8FFF73A
:100A300053FF15A92846FFF705FC15A8FFF795FCFD
:100A400010A8FFF792FC0BA8FFF78FFC04F1180623
:100A5000D4E91423294610A8FFF73EFF10AA314617
:100A600015A8FFF767FF15A93046FFF7EBFB15A8A0
:100A7000FFF77BFC10A8FFF778FC29464046FFF7FC
:100A80008FFC06A8FFF771FC40461BB0BDE8F08361
:100A90000000F03F10B5054C204605F0AFFB2046A6
:100AA000034A0449BDE8104005F040B8CC0C0020D2
:100AB000C80100202162000810B50446006808B192
:100AC00005F08CF8204610BD2DE9F04190E81800A3
:100AD000E41AA41014BF23460123E41806468846EE
:100AE00002D2B4F1804F20D36FF04044A00005F053
:100AF00059F8074696E822006D1AEF42D8F8002010
:100B000018BF7A51AB0803D02A4638462FF0B2F806
:100B1000306804353D4408B105F060F807EB840403
:100B200037607560B460BDE8F081002CDED12746E7
:100B3000E0E7000013B50C4B0360044601900B483E
:100B400082684368934202460AD003B11C600433B2
:100B50005360074A136820460133136002B010BD8A
:100B600001A9FFF7B1FFF4E78CED0308D40C0020D6
:100B7000D00C00200448054A054900230360436067
:100B8000836004F0D3BF00BFD40C0020C801002054
:100B9000B90A000810B50446006808B105F01EF84F
:100BA000204610BD38B504460D4600F0AFFD29467D
:100BB000204602F071FCBDE8384000F0BDBD2DE9D3
:100BC000F843D0E90C8906464946404614461D467E
:100BD0002CF042F808B144464D46D6E90E8920462D
:100BE00042464B4629462CF037F808B144464D465C
:100BF00029460022002320462CF024F806F118078D
:100C0000002168B13046FFF7CDFF05F100412046D5
:100C10002CF060F801463846FFF7C4FFBDE8F883C2
:100C20003846FFF7BFFF294620462CF053F801460F
:100C30003046F1E72DE9F04190E81800E41AA410DD
:100C400014BF23460123E4180646884602D2B4F1B5
:100C5000804F20D36FF04044A00004F0A3FF07466C
:100C600096E822006D1AEF42D8F8002018BF7A519A
:100C7000AB0803D02A4638462EF0FCFF3068043516
:100C80003D4408B104F0AAFF07EB840437607560A7
:100C9000B460BDE8F081002CDED12746E0E700001B
:100CA000F7B504460D4617461E4600F02FFD2946AF
:100CB000204604F1180502F009FD00F03DFD00F0AA
:100CC00025FD2846394602F001FD00F035FDDDE93D
:100CD0000823C4E90C23DDE90A2315480194C4E97B
:100CE0000E230C9B826823644368934202461AD009
:100CF00003B11C60043353600E4A13680133136060
:100D000000F004FD3146204602F03EFC00F014FDE8
:100D100000F0FCFC2846314602F036FC00F00CFDE9
:100D2000204603B0F0BD01A9FFF784FFE4E700BF50
:100D3000E00C0020EC0C00200448054A0549002383
:100D400003604360836004F0F1BE00BFE00C00204C
:100D5000C8010020950B0008F8B5044616461F464A
:100D60000D4604F044FD00220023C4E90667C4E9EF
:100D7000082325612046F8BD04F0FFBC2DE9F84F9B
:100D8000DFF880B004460026002701254FF0000A56
:100D9000304639462BF0B6FC5246804689465B46C3
:100DA000D4E906012BF0DCFC52465B462BF0D8FC64
:100DB00002460B46404649462BF04EFFB0B100229A
:100DC0000023404649462BF03DFF28B132463B46C2
:100DD0000B482FF001F80025204604F0EDFCD4E983
:100DE0000867C117861B61EB0707D1E7204604F0AF
:100DF000E3FCC117C4E908012846BDE8F88F00BF2D
:100E000094ED030800408F4008B5D0E908012BF0AD
:100E100079FC0022014B2BF0CDFD08BD00408F4036
:100E200003684268D21A9210914210B502D3034867
:100E300012F052FD03EB810010BD00BFB1ED0308BD
:100E400003684268D21A9210914210B502D3034847
:100E500012F042FD03EB810010BD00BFB1ED0308AD
:100E600008B542680368D21A9210914202D3024830
:100E700012F032FD08BD00BFB1ED03082DE9F047C7
:100E80008AB0DDE914450169DFF8BCA0DFF8B49051
:100E9000DFF8B88006460868CDE90245DDE912456D
:100EA000CDE90045046805A8A0470024DAF8003021
:100EB000A3421ED8DFF89880214F224E0024D8F894
:100EC00000309C4236D221461D48FFF7C9FF3B68DF
:100ED0002146304653F82450FFF7A2FF006803680C
:100EE0005B68984702460B462846FFF768FE0134C8
:100EF000E5E721464846FFF793FF05682B68214642
:100F000040461F68FFF79CFF006800F081F9D6E9B2
:100F10000623CDE90223099B059ADB0004FB03238A
:100F2000D3E90023CDE9002302460B462846B84703
:100F30000134BBE705A8FFF718FA0AB0BDE8F0874F
:100F4000E00C0020D40C0020000D0020F40C002048
:100F5000EC0C002038B50D4649682B68C91A0023EF
:100F6000036043608360C9100446FFF706FA2968EE
:100F70006D6823686D1AEA0804D018462A462EF0D8
:100F800079FE03461D446560204638BD2DE9F043D7
:100F9000314F3D6891B000230646884601A8294696
:100FA000019302930393FFF7E8F9019B2C461A463D
:100FB000002000211CB1E2E80201013CFAE703EB4A
:100FC000C5030293DFF894900495012305933B68D1
:100FD000A34218D921464846FFF732FFD8E9062335
:100FE000006800F0B9F8059B019DDB0021464846EA
:100FF00004FB0355FFF724FF006800F009F90134F2
:10100000C5E90001E3E7D8F81040236801A906A864
:101010009D68FFF79FFF049B0993059B0A9306AA0F
:1010200021460BA8A8470BA8FFF79FF906A8FFF7D2
:101030009CF9D8F81040304604F11801FFF78AFFF8
:10104000636AF360A36A336101A8FFF78EF9304643
:1010500011B0BDE8F08300BF000D0020F40C0020AB
:1010600010B5054C204605F0C9F82046034A04494E
:10107000BDE8104004F05ABDF00C0020C80100206B
:1010800021620008034610B107C983E807007047D2
:10109000704742688168036812F0010F4FEA6202EC
:1010A0001CBF8858C3588818184710B504465830D4
:1010B00004F08AFAD4E9002328B1013243F1000395
:1010C000C4E9002310BD12F1FF3243F1FF33F7E70B
:1010D00010B50446083004F077FAD4E9002330B1A3
:1010E00012F1FF3243F1FF33C4E9002310BD013296
:1010F00043F10003F8E710B50446006808B104F0B6
:101100006DFD204610BD10B50446583004F05CFA61
:10111000D4E9002330B112F1FF3243F1FF33C4E9C7
:10112000002310BD013243F10003F8E710B5044677
:10113000083004F049FAD4E9002328B1013243F120
:101140000003C4E9002310BD12F1FF3243F1FF3365
:10115000F7E70000000000002DE9F3478246D0E9E0
:10116000000114461D462BF0CDFA27A3D3E9002336
:101170002BF0F6FA0646DAF8E0000F462BF08AFA72
:1011800002460B46304639462BF014FC0646DAF888
:10119000E4000F462BF07EFA02460B4630463946F5
:1011A0002BF008FC80468946DAE92A23CAE92C8913
:1011B0002BF022F922462B462BF0FCFB06460F466D
:1011C000DAE92E23CAE930672BF016F922462B46BE
:1011D0002BF0F0FBDAE93223CAE93401CDE9000152
:1011E0002BF00AF922462B462BF0E4FB9DED007B09
:1011F000CAE93601CAE92A89CAE92E678AED327B33
:1012000002B0BDE8F08700BF182D4454FB211940FF
:10121000D0E930017047C36810B504460BB19B6834
:101220009847204610BD00007FB5044600230022E9
:1012300000F10806C0E900230121304604F15805F9
:1012400004F0CAF90121284604F0C6F9D4F8E430C4
:10125000013B032B84BF0423C4F8E430D4F8E4300A
:10126000002B0DDD224B0093002301933046214BD0
:1012700002946946039304F025FA6846FFF7CBFF12
:10128000D4F8E430012B0DDD1B4B009300230193B8
:101290003046184B02946946039304F039FA6846C5
:1012A000FFF7B9FFD4F8E430022B0DDD134B0093A8
:1012B0000023019328460F4B02946946039304F0E0
:1012C00001FA6846FFF7A7FFD4F8E430032B0DDDE1
:1012D0000B4B0093002301932846064B029469466A
:1012E000039304F015FA6846FFF795FF04B070BD4C
:1012F00007110008FCED0308AB1000082D110008D1
:10130000D11000082DE9F04190E81800E41AA4106B
:1013100014BF23460123E4180646884602D2B4F1DE
:10132000804F20D36FF04044A00004F03BFC074600
:1013300096E822006D1AEF42D8F8002018BF7A51C3
:10134000AB0803D02A4638462EF094FC30680435AA
:101350003D4408B104F042FC07EB8404376075603B
:10136000B460BDE8F081002CDED12746E0E7000044
:1013700073B50446164608301D4604F059F9314647
:1013800004F1580004F054F91A48069BC4F8E430FC
:10139000079B8268C4F8E8304368C4F8E050934281
:1013A0000194024621D003B11C6004335360124AF9
:1013B00013680133136000220023C4E900230022D4
:1013C00000232046C4E92A23C4E92C23C4E92E23A0
:1013D000C4E93023C4E93223C4E93423C4E9362301
:1013E000FFF722FF204602B070BD01A9FFF78AFF78
:1013F000DDE700BFF40C0020000D00200448054A82
:101400000549002303604360836004F08FBB00BF85
:10141000F40C0020C8010020F71000082DE9D04F7F
:10142000D0E90467D0E90289044692469B463946D2
:10143000D0E9082330462BF093F942464B462AF078
:10144000DBFFD4E906232BF0B5FADDE90A232BF004
:1014500087F942464B462AF0D1FF80468946C4E9C7
:10146000028952465B46DDE908012AF0C5FF424683
:101470004B462AF0C3FF32463B4680468946002051
:1014800010492BF097FA02460B46404649462BF08E
:1014900067F9D4E90C67C4E9080132463B462BF0F2
:1014A000D1FB08B1C4E90867D4E90A67D4E90801A7
:1014B00032463B462BF0E4FB08B1C4E90867BDE8BF
:1014C000D08F00BF0000F03FD0E908017047000056
:1014D000D0B5044616461F46FFF72CFB0C4B236085
:1014E000DDE90423C4E90623DDE90623C4E90A2370
:1014F000DDE9082300200021C4E90C230A9BA36333
:10150000C4E90201C4E90801C4E904672046D0BD6A
:1015100010EE03080748084A08B5121A00212EF0F9
:101520000DFC04F0C1FA2DF0DFFD04F0C4FA04F064
:10153000FFFA00BFB00C002048450020022801DD62
:1015400004F05EBA0120704708B5012004F0F0FAFB
:1015500008B5FFF7F9FF70B50E460446154601F0D1
:1015600065FE013609D02046002101F083FE2946A0
:101570002046BDE8704001F079BE70BD38B5044624
:101580000D4603685AB1826813602046012101F0BC
:1015900071FE29462046BDE8384001F067BEC268AA
:1015A0001B04F1E70022FFF7D6BF70B50E460446D4
:1015B000154601F03BFE013606D02A4620460021A2
:1015C000BDE87040FFF7DABF70BD0022FFF7EDBF46
:1015D0000048704718EE0308014800F003B800BF48
:1015E00018EE0308036870B5DB6804469847636823
:1015F0005A6823681AB99B68BDE8704018475B6851
:10160000156898476368281A00285A6807DC9168AB
:1016100059601B68002BEAD050689847E7E72368B9
:1016200010681B69BDE87040184703685B6818477D
:1016300010B5044601300DD110BD9C4209D12046A1
:10164000896802F059F920460021BDE8104002F0F7
:10165000D7B90C31B1F900305A1CEED10248BDE8BF
:10166000104000F07DB800BF83EE0308884208B543
:1016700008D0431C06D0013106D0044800F070F8B1
:101680004FF0FF31084608BD0146FBE752EE030864
:10169000B1F900305A1C01D118467047834201D17C
:1016A000486870470C31F3E7421C10B5044607D078
:1016B000FFF7EEFF431C044602D1024800F050F849
:1016C000204610BD63EE0308B1F900305A1C01D169
:1016D00018467047834201D1886870470C31F3E7A0
:1016E000421C10B5044607D0FFF7EEFF431C04462A
:1016F00002D1024800F034F8204610BD34EE030851
:10170000EFF31080C04300F00100704708B5FFF709
:10171000F7FF72B6064B1A6822B980F00100054A3D
:10172000C0B210701A681A6801321A6008BD00BF92
:10173000100D00200C0D002008B5074B1A6852B19F
:10174000FFF7DEFF1A68013A1A601B681BB9034BEA
:101750001B7803B962B608BD100D00200C0D0020E7
:101760000FB4012008B504F0E3F900B589B0FFF724
:10177000CDFF052101A8FFF728FF039B019A1A60FE
:10178000962004F095F8019B049A1B0413609620A0
:1017900004F08EF8F1E701F096BD000008B5024CA8
:1017A00023689847FCE700BFCC01002008B50B4830
:1017B00000F0AAFD0A4B18600A4800F0A5FD0A4B8C
:1017C00018600A4800F0A0FD094B18602DF08CFC51
:1017D00000210846BDE8084004F06DB9E0EE0308BA
:1017E000F4430020DCEE03081C0D0020D8EE0308B3
:1017F000140D0020FFF7D2BF10B5044600F0F2FC34
:1018000021460246BDE810400148FFF7A9BF00BFCE
:10181000A0EE030804F0E4B90B4A0C4B0C4830B4BA
:101820001A60C2F1005303F50033B3F5806F194617
:1018300028BF4FF48061074D074C01605B1A1A44C2
:101840002A60236030BC704748450020A023002058
:10185000200D0020240D00209C23002000F028FEF5
:10186000FFF7DAFF0348002100F0D6FD00F03CFC52
:10187000FEE70000D0010020024B4FF0FF31186856
:1018800000F060BD1C0D0020014B186800F082BD07
:101890001C0D0020024B4FF0FF31186800F052BDC4
:1018A000140D0020014B186800F074BD140D0020C9
:1018B00030B502788C784368013AD2B213B19D7882
:1018C000A54207D2022A4B60416006D803B1996055
:1018D000886030BD18465B68F0E700238B6030BD40
:1018E00002784368013A59684160022A4FF00002C9
:1018F00005D809B188605A609A60184670475A60E6
:10190000FBE70000034B5A68426000228260586087
:10191000704700BFF8430020104BDA6810B58AB159
:101920009A8ADC688A420CD3C460D860C4680361B8
:1019300004B12061521A92B28282998A8A1A9A82DA
:1019400010BD3CB900248A1AC460D86003619A8231
:10195000848210BDA38A1A442346E2E71044002083
:101960002DE9F041174DEB6853B1AB8A164FDFF804
:101970005C80013BAB820026AA8A0AB9EC680CB9EC
:10198000BDE8F081A36833B161685960616809B14D
:101990008B606260A66021463846FFF789FFA38A04
:1019A000AB826378042B01BFD8F80030E28A9B1821
:1019B000A38201236370E368EB600BB11D61E660F5
:1019C0002661D9E710440020F8430020904400200D
:1019D00083682BB142685A6042685AB1936070477D
:1019E000054B5A68904202D142685A6070471346CC
:1019F000002AF6D1704700BFF843002010B5846874
:101A000001462CB94378012B0DD1074C03E0A468A3
:101A10002378002BFBD00846FFF7DAFF2046BDE80D
:101A20001040FFF745BF10BDF8430020036910B513
:101A300063B1C268DA60C2684AB1998A848A214473
:101A4000998213610023C3600023036110BD9A8251
:101A5000FAE7000070B4114BDD78EFF31086EFF376
:101A6000108272B69A78954211D901329A701A781A
:101A7000541CA54208BF00241C7006B962B69542EA
:101A800007D903EBC20370BC586099607047002E01
:101A9000F4D0022070BCFFF7AFBE00BFA03F002013
:101AA000054B1B7823B9054B4FF080521A607047E5
:101AB000034B01221A707047781D002004ED00E0EE
:101AC000791D002038B51A4B1A4C18680123437051
:101AD000FFF718FF6578A3783BB917486570FFF7E3
:101AE000FFFEBDE8384000F0BDBD04EBC5035868FB
:101AF00002789AB9198900F01BFAE37801359D4202
:101B000008BF0025EFF31083EFF3108272B6A278BE
:101B1000013AA270002BDED162B6DCE7012A03D1C4
:101B2000996800F093F9E8E701F0A4F8E5E700BF51
:101B300048440020A03F0020F8430020084B1A68CA
:101B4000084B1A6000225A60072243F8042C064A08
:101B5000136843F07F4313604FF0FF30704700BFBE
:101B600000EF030814E000E020ED00E07047000003
:101B700008B50B4B186801234370FFF7C3FE00F054
:101B80000DFA084A136801331360FFF7E9FE00F00D
:101B9000F1FC0548FFF7A4FEBDE8084000F062BD77
:101BA0004844002090440020F8430020064B1A6867
:101BB000136BD26A934203D81A68044B9A4202D03C
:101BC0000120FFF719BE704748440020A52E5AE2B5
:101BD000836A9B0804BF224B1B88F0B5056B08BFC6
:101BE0009B0805EB8302540748BF043A4FF0807608
:101BF00002E94200A2F14004A2F14406A2F10C075E
:101C00004FF0000E46F804EFBE42FBD1C66942F821
:101C1000206C41631249C4620968C90017D5112BB1
:101C200015D9103B6FF007015B084B43A3F1380156
:101C30000A444FF0CC30214691420BD108331C446A
:101C4000231F9D423CBF4FF0CC3344F8043C054B6E
:101C50002B60F0BD41F8040C41F8080DECE700BF23
:101C6000E8EE0308A52E5AE290F82520C36A12B1C7
:101C70006033196070472033FBE710B590F82540BA
:101C8000C36A1CB1603383E8060010BD2033FAE755
:101C9000002ABBBF22F000420732033222F00702C3
:101CA000A8BF22F0030210B5B4BF10230C2392B1D9
:101CB000D4188C420FD8014403445442416003605D
:101CC000826021449818814202D300510346F9E70B
:101CD0000020186010BD012010BDEFF3108372B614
:101CE000026803F001030AB11168016003B962B62A
:101CF0001046704781420DD3436899420AD2EFF3F0
:101D0000108372B602680A60016013F0010003D10B
:101D100062B67047012070470020704701231039D8
:101D200003708908002343708370436003814381FB
:101D30008381C1817047000070B5858904461646CD
:101D4000002D38D043891A1D013350F822200A6033
:101D5000C2899BB29A42438104BF002343814368F6
:101D6000F3B14378022B1BD1FFF7BAFD00210546E2
:101D7000FFF77AFF2389E9691A1D013344F822101D
:101D8000E2899BB29A42238108BF0023284608BFFC
:101D90002381FFF74BFE284600F07EFC002070BD3B
:101DA000EFF31080EFF3108372B6013DA581002898
:101DB000F4D162B670BD4AB14268094B42B11968AC
:101DC000FFF776FD0821304600F08AFC012070BD47
:101DD0001B6843605A60986001234370F2E700BFBC
:101DE00048440020C2898089101A704708B5FFF75F
:101DF00031FEBDE80840FFF753BE838910B50446A5
:101E00000BB34389043350F823300B604378022B23
:101E100004D10021FFF71EFEFFF742FEEFF310830F
:101E2000EFF3108272B6A289013AA28103B962B6B9
:101E30006389E28901339BB29A42638101D1002315
:101E40006381042010BD184610BD0000436870B5C2
:101E500004460E46002B4BD04578022D20D0032D92
:101E60000AD0012D61D1FFF73BFD04463246102117
:101E7000FFF703FF65700EE00846FFF72EFF0546EB
:101E8000002852D02046FFF72BFD29460446FFF7D5
:101E9000EBFE012363702046FFF7C8FD214622E0D8
:101EA000FFF71EFD00210546FFF7DEFE2389E969E5
:101EB0001A1D44F82210EFF31082EFF3108172B66E
:101EC000A1890131A18102B962B6E28901339BB2D5
:101ED0009A42238104BF0023238101236B7028468B
:101EE000FFF7A4FD29461148BDE87040FFF7E0BCAC
:101EF0008089E189884213D223891A1D44F822601F
:101F0000EFF31082EFF3108572B60130A08102B9B1
:101F100062B601339BB2994208BF0023238170BD92
:101F20000320BDE87040FFF767BC70BDF843002098
:101F300010B5038B42781943062A04460183438B6C
:101F400015D133EA010219D121EA03012183204688
:101F5000FFF76CFD012320466370628B0821FFF7B9
:101F60008CFE21460648BDE81040FFF7A1BC052ABB
:101F700004D111EA030201D04283E5E710BD00BF9E
:101F8000F8430020034B00221A60034A1268DA80EB
:101F9000704700BF30440020E4EE030808B50E4B44
:101FA0005A680E4B196891420D4905D01A60DA88BB
:101FB0000868013A02449A8098880A8890420AD1B7
:101FC000002205481A60FFF78BFCBDE80840014677
:101FD0000148FFF76DBC08BDF843002030440020E5
:101FE000904400200B4A136830B5002443B90360C5
:101FF000816013B19D68691A996044B1206030BD59
:102000009D68A942F3D31C46491B1B68EEE710608C
:1020100030BD00BF40440020C0B1431C11D00C4B68
:10202000984211D80B4B1B684FF47A715A1E01FB72
:102030000020B0FBF3F34FF6FE70834206D898B24F
:1020400070474FF6FF7070474FF6FE70704700BF45
:1020500000093D009CEE030838B1830704D10378E2
:10206000002B18BF0020704700207047B0B50E4D00
:10207000287800AFA8B90D4C236893F8241000F01D
:1020800051FB2368DA78FF2A03D1DA6A203282F31F
:10209000098862680AB984E80C0000F0FBFC01239F
:1020A0002B700020B0BD00BF4444002048440020F5
:1020B000014B1878704700BF4444002010B5EFF37F
:1020C000108434B9EFF305841CB9EFF31484E407EA
:1020D00002D4034B187810BDDFF808C000DF10BD34
:1020E00044440020B120000890B589B000AFEFF360
:1020F0001083002B37D1EFF30583002B33D1FFF78B
:10210000DDFF28B9194C246814B1646804B1A047F4
:10211000EFF3148404F00304022C18D0032C1CD019
:10212000012C1ED007F1200484F30988104C247878
:10213000E40710D5022484F31488BFF34F8FBFF354
:102140006F8FDFF830C000DF2437BD4690BD084CEC
:102150002478E407F5D40324EDE7054C2478E4075C
:10216000EFD5FF20F0E78220EEE700BF2C440020EF
:10217000CAEE03086D20000870B50B4616460246ED
:1021800010B90024204670BD00680028F9D0B2F9CB
:102190000440E51CADB2062DF3D8D168C1B1126977
:1021A000043444EA012100F0FBFA0028E9D00A4B8C
:1021B0000A4A013853F82040E36A5A63084B1B6807
:1021C00043B19B6833B13146E0789847E063D9E783
:1021D0000A46E5E7E663D5E7543D0020652300089D
:1021E0002C44002008B500F095FA18B10138024BD4
:1021F00053F8200008BD00BF543D002010B5FFF784
:102200002BFF044670B1084B1B681BB1DB680BB198
:10221000C06B9847E07800F019FBFF280CBF8120C5
:10222000002010BD802010BD2C44002008B528B12E
:10223000FFF7F2FE00F01AFD402008BD08BD0000C7
:1022400010B5EFF3108434B9EFF305841CB9DFF84F
:102250000CC000DF10BD822010BD00002D22000840
:10226000830705D138B1436901691B681846704777
:1022700000231946FAE70346FBE7000010B50446C1
:102280000846DFF80CC000DF84E80300204610BDDC
:102290006122000810B548B1046824B1237823B93D
:1022A000204600F03DFC204610BD002010BD70B55A
:1022B00010F0030405460E4611D180B10378032BBC
:1022C0000DD10846FFF7A8FE0146284600F0A0FC05
:1022D000012806D1002E14BFC120812070BD8020AE
:1022E00070BD204670BD820708B50AD148B1037899
:1022F000032B06D100F01CFCFF280CBF812000201E
:1023000008BD802008BD000070B50546EFF31084BD
:1023100094B9EFF305867EB9EFF31484E40706D48D
:10232000064C24781CB9BDE87040FFF7B3BF2846BF
:10233000DFF80CC000DF70BD002070BD44440020F9
:102340009522000810B5EFF3108434B9EFF305843B
:102350001CB9DFF80CC000DF10BD822010BD0000EA
:10236000AF220008084808B54FF0FF310068FFF7BA
:10237000E9FFDFF818C000DF0446FFF74BFA2046FC
:10238000DFF80CC000DFFEE73C440020E521000838
:10239000FD21000810B5EFF3108434B9EFF3058484
:1023A0001CB9DFF80CC000DF10BD822010BD00009A
:1023B000E72200082DE9F04180460F461646EFF36C
:1023C000108404BBEFF30583D3B9EFF31483DB0769
:1023D00006D40E4B1B781BB9BDE8F041FFF7CCBE0D
:1023E0000B4D4FF0FF312868FFF7ACFF40463946F0
:1023F0003246DFF820C000DF04462868FFF7CAFF36
:102400002046BDE8F0810024FAE700BF44440020E4
:102410003C440020792100080022FFF7CBBF10B513
:10242000044660B1016851B1406848B1037833B9DE
:102430000431890089B2FFF771FC606810BD00208B
:1024400010BD000038B5114C23780BB900F0A8FA84
:102450000F4B25781B68FF229A708DB929460D48CD
:10246000FFF7DDFF0C4B2A46186029460B48FFF7A3
:1024700083FE0B4B18600B48FFF746FF0A4B1860B2
:1024800001232370094B0020187038BD3844002008
:1024900048440020D0EE0308503D0020ECEE030835
:1024A0002440002004EF03083C4400204444002062
:1024B00010B5EFF3108474B9EFF305845CB9EFF352
:1024C0001484E40703D4BDE81040FFF7BBBFDFF876
:1024D0000CC000DF10BD822010BD000045240008A4
:1024E0002DE9FF410C46804618B30378012B25D116
:1024F0000846FFF791FD02A902464046FFF71CFC83
:10250000012811D10020002C0246034618BF4020AC
:10251000029904460D4616461F4620462946324675
:102520003B4604B0BDE8F08100200246034610207F
:10253000EEE78024054606460746EEE700258024A0
:102540002E462F46E9E770B50E461446054660B1A3
:102550005AB90378012B08D1FFF744FC38B128465B
:102560003146FFF743FC204670BD802070BD8120BE
:1025700070BD0000F8B5114E34682CB1A368104F3F
:10258000013BA360A26802B1F8BD256838683560D8
:102590002146FFF7D8FF10B10420FFF72DF963792A
:1025A000012B07D1E1682046FFF71CFD002DEBD081
:1025B0002C46E7E701232371F8E700BF40440020E1
:1025C000503D00207FB504461646084601B122B1B1
:1025D00080232360204604B070BD0B78012BF7D117
:1025E00002A9FFF70AFC042808BF102301AD14BF9D
:1025F0000196019395E8070084E80700EAE70000E8
:1026000038B504461546EFF3108010B9EFF3058096
:1026100028B12A462046FFF7D5FF204638BD084698
:102620001146DFF80CC000DF84E80700F5E7000082
:10263000E12400087FB50A4C21684FF0FF3203A85F
:10264000FFF7DEFF039B102BF6D1049901A8FFF7DB
:1026500015FE019B002BEFD002989847ECE700BFD6
:10266000503D0020054B586002234370044B1B680B
:102670001BB11B690BB1C06B184770474844002061
:102680002C44002008B50348FFF72AF9BDE80840AC
:10269000FFF7E8BFF843002070B5044618B9BDE85D
:1026A0007040FFF7EFBF0C4EA278306883789A42F3
:1026B0004FF0010508D9FFF725F933685D70204612
:1026C000BDE87040FFF7CEBF657021460348BDE806
:1026D0007040FFF7EDB800BF48440020F8430020E9
:1026E00038B50D46014680B14FF6FF739842074C4E
:1026F00002D02068FFF710F9236805485D70FFF7E6
:10270000EFF8BDE83840FFF7ADBF38BD48440020C2
:10271000F8430020024B186800B1C078704700BF32
:102720004844002010B5A8B9194B1B68997083F86C
:102730002410184843689B788B4201D8002010BDB4
:10274000134C2168FFF7B4F8236801225A70FFF791
:1027500099FFF3E7104B1B88984217D801380F4BAD
:1027600053F8204094B10A4BA1701B6884F82410E0
:102770009C42DED02046FFF741F96378012BDDD182
:102780000448FFF7ADF8FFF787FFD7E7FF2010BD3C
:1027900048440020F8430020CCEE0308543D0020BC
:1027A0002DE9F04711F0FF0F0D46804623481646ED
:1027B0009A4608BF0135FFF790FA044620B94FF05A
:1027C00000094846BDE8F0871D4B06631B881D4E77
:1027D000280AA06200218B4201F10109EFD006EB2B
:1027E00089020F4652F8042C4946002AF3D1EDB273
:1027F000012384F80390C4F81CA0C4F838A0227008
:102800006370A57084F824506260A260E260226167
:102810002262A282E2822283628384F8252018B990
:102820000948FFF75AFA206320464146FFF7D0F9DE
:10283000204646F82740FFF72FFFC2E72840002038
:10284000CCEE0308543D0020903D00202DE9F84FC8
:102850004D4D18B12B68DB78984241D12C68DFF8D8
:102860003C810023637003F0C8F9E062FFF79EF932
:102870002B681C6A0127A4B92A684449D3784448C4
:10288000013B41F82340116BFFF734FA29684148B6
:102890000C63FFF72FFA2C60FFF7F4FE2046BDE82B
:1028A000F88F6368B3B12046FFF71AF80021064697
:1028B000FFF7DAF93046FFF7B9F87770314640464E
:1028C000FEF7F6FFE368326A6780A660E260346272
:1028D0001C46D0E7E2686380A360E3601446CAE761
:1028E0002D4B1B8898424DD8284B471E994653F8CC
:1028F0002760002E46D03046FFF76AF83046FFF7D3
:1029000095F8DFF898B0346A4FF0010AB4B9316B2A
:102910001F4849F82740FFF7EDF9314634631D4859
:10292000FFF7E8F91D48296843689A788B789A423E
:10293000B4D901234B70FEF7BBFFADE76368DBB191
:102940002046FEF7CDFF00218046FFF78DF9404677
:10295000FFF76CF888F801A041465846FEF7A8FF3B
:10296000E368D8F82020A4F802A0C4F80880E26048
:10297000C8F820401C46C9E7E2686380A360E360B2
:102980001446C3E7FF2489E748440020543D002053
:10299000903D002028400020CCEE0308F8430020A2
:1029A00038B52C4B2C491A880023184693424DD336
:1029B0002A4B2B4819882B4C4022FFF769F92A4BE8
:1029C0002A481A882A4B42F000421968FFF760F93A
:1029D000284B1988284B08221868FFF759F9FF235C
:1029E0000025E3702148A562012363702570A5705E
:1029F00084F824506560A560E56025612562A582A4
:102A0000E5822583658384F82550FFF766F91B4925
:102A100020632046FFF7DCF8194B04221A705D6032
:102A2000184B1A70DD601D619D82174B20461C609B
:102A300002236370FFF716FE144A154B12781D70BF
:102A40005D70DA70BDE83840FFF79CBA41F82300AA
:102A50000133ABE7CCEE0308543D002098EE0308A9
:102A60002840002050440020E8EE0308903D00205C
:102A700094EE03089AEE0308180D0020F5170008DD
:102A8000F84300201044002048440020C9EE030809
:102A9000A03F002008B51E4B1A6842F47F021A605E
:102AA0001B681B0203F07F43DB43B3FA83F3194A2D
:102AB000194812680168DBB2C3F10803C2F30222AD
:102AC000934298BF531C6FF0807202FA03F303F035
:102AD0007F4321F07F4213430360FFF72FF80F4B32
:102AE0000028186012DB00F1604000F56440FF220E
:102AF00002701A6853099B0003F1604303F56143B8
:102B000002F01F02012101FA02F21A6008BD00BFA3
:102B100020ED00E00CED00E01CED00E0284400207A
:102B2000032303700023438043608360C3607047C6
:102B30002DE9F84343880546002B63D0324F816866
:102B40003A6891425ED1013B9BB243801BB10024A5
:102B50002046BDE8F8830B6A984229D1C3680B620E
:102B600091F824300C6A5CBB8B706A68DFF89C803B
:102B7000002A3BD02846FEF7B3FE21460646FFF763
:102B800073F83046FEF752FF336AEB604FF00109ED
:102B90003968D8F80430A5F80290AE6035628A78BA
:102BA0009B789A4214D33046FFF776FDD0E7134660
:102BB000002BD5D0DA689542F9D1EA68DA60CFE720
:102BC00062681AB19278934238BF1346E468CAE744
:102BD0004046FEF76DFE31464046FEF769FE3B6813
:102BE00083F8019086F801902046DDE7D8F80420AC
:102BF00092789A42ABD94046FEF75AFE3B680122D2
:102C00005A70F1E7FF24A3E748440020F84300206E
:102C1000438870B504460E46134D43B92A68826056
:102C2000116AC160106201336380002070BD80684A
:102C30002A689042F7D081B1937882789A4202D282
:102C40008370FEF7DBFE62684AB129682046FEF712
:102C50002FFE09213046FFF743FD012070BD2B6890
:102C600063605A609C60F4E7484400200321FFF74A
:102C700037BD0000426810B57AB1FEF731FE044658
:102C8000FEF7D4FE012161702046FEF7EDFF2146DC
:102C90000448BDE81040FEF70BBE42880132428076
:102CA00010BD00BFF843002070B5134C23681A69AB
:102CB000950707D5DA68900704D56FF002021A610C
:102CC000FEF78AFC23681A69510713D5DA685207A0
:102CD00010D56FF00402094E1A615D6A3368EB1A71
:102CE000B3F57A7F06D302F03FFC236805F57A72CC
:102CF0009A63356070BD00BF944400208C1D002095
:102D000030B589B001A903A802F0AAFB02F078FB54
:102D100000230293244B01901A6C244C42F00802C9
:102D20001A641A6C02F008020292029A1A6A42F0BD
:102D300008021A621A6A22F008021A62069AA3F5B9
:102D40000B3323604FF0FF33E360194B4ABBB0FBFA
:102D5000F3F001380025606014482561A5606561C5
:102D600001F00CFF1349322001F024F9124B0F48F7
:102D70004FF480225A60294601F0ECFF04210B48F1
:102D800001F0E8FF23680D4A596A1160126802F5E4
:102D90007A729A63DA68284642F00402DA6009B06F
:102DA00030BD4000D3E700BF00380240944400200B
:102DB00040420F00A92C000800E100E08C1D00201B
:102DC000034B044A1360DA6822F00402DA607047A9
:102DD000000C004094440020034B044A1360DA685E
:102DE00042F00402DA607047000C00409444002076
:102DF000F8B54C26134B4643341D0F461C440025A2
:102E00001E44BD4200D1F8BD0121336801FA05F22C
:102E10001A4213D00C4A236B506901FA03F30342A0
:102E20000CD0D4F818E05361206838B1DEF81020D7
:102E30001342064B08BF02211B6898470135043432
:102E4000DFE700BF901D0020003C0140A41F0020D0
:102E500001210020FFF7CCBF01210846FFF7C8BFC2
:102E600001210220FFF7C4BF01210320FFF7C0BFEB
:102E700001210420FFF7BCBF05210846FFF7B8BFBA
:102E800006210846FFF7B4BF012910B510D1144C34
:102E9000838932B1A26803F00F0399401143A16006
:102EA00010BDA26803F00F03994022EA0101F6E782
:102EB00002290AD10A49838942B1C86803F00F0385
:102EC000012202FA03F30343CB6010BDCA6803F08A
:102ED0000F03012000FA03F322EA0303F4E700BF23
:102EE000003C0140B0F90C309AB202F00F0170B50D
:102EF00001F00C0404F1804404F59C3402F0030258
:102F0000A56892000F269640C3F30313934025EA69
:102F10000605094A2B43A3601468012303FA01F153
:102F20002143116090F90020510902F01F029340E3
:102F3000024A42F8213070BD003C014000E100E04F
:102F40002DE9F04F9B464B1C85B007460C46924638
:102F500064D000230393324B5A6C42F480425A648B
:102F60005B6C304A03F480430393039B01F00F082A
:102F70000C2303FB0823C1F303105D68062D45D81D
:102F8000DFE805F004383A3C3E404200264E01920C
:102F900000F0B4F80C21019ABC8101FB08F1531830
:102FA00052F801E0214993F908C087F800C04C228B
:102FB0006A4301248B587D6004FA0EF41C434FF0E1
:102FC0000009C7F808908C50132202FB05E501EBBD
:102FD00085023146D061C2F804B0C2F83480144A88
:102FE0006046C2F800A000F0E5FF3846FFF77AFF20
:102FF000484610E00F4ECAE70F4EC8E70F4EC6E72F
:103000000F4EC4E70F4EC2E70F4EC0E70F48FEF762
:10301000A7FB4FF0FF3005B0BDE8F08F0846FAE798
:10302000003802403CF00308512E0008901D00209B
:10303000A41F0020592E0008612E0008692E0008E8
:10304000712E0008792E0008812E000808EF030871
:1030500010B58389124C0122216803F00F0302FA94
:1030600003F321EA0303236090F900300D4C590962
:10307000203103F01F0302FA03F344F82130BFF3B9
:103080004F8FBFF36F8F90F90030590903F01F0382
:103090009A4001F1600344F823200023836010BDAF
:1030A000003C014000E100E0838903F00F020C23A3
:1030B0005343104A70B54468D658FFF7C9FF4C21F6
:1030C0000D4A6143012000FA06F55058132303FB13
:1030D000046320EA0500505002EB830000214160A8
:1030E000981D0C3302EB800002EB830341605960B2
:1030F00070BD00BF3CF00308901D002000B5002308
:1031000089B007286FD8DFE800F00413202D3A4774
:1031100054610093364B37481A6B42F001021A6330
:103120001B6B03F001030093009B09B05DF804FBE7
:1031300001932F4B30481A6B42F002021A631B6B4B
:1031400003F002030193019BEFE70293284B2B4806
:103150001A6B42F004021A631B6B03F00403029320
:10316000029BE2E70393224B25481A6B42F00802C8
:103170001A631B6B03F008030393039BD5E70493C7
:103180001B4B20481A6B42F010021A631B6B03F0B2
:1031900010030493049BC8E70593154B1A481A6B58
:1031A00042F020021A631B6B03F020030593059B7A
:1031B000BBE706930E4B15481A6B42F040021A63A8
:1031C0001B6B03F040030693069BAEE70793084B87
:1031D0000F481A6B42F080021A631B6B03F08003E6
:1031E0000793079BA1E70B48FEF7BAFA00209CE77C
:1031F0000038024000000240000402400008024083
:10320000000C02400010024000140240001802406E
:10321000001C02402FEF030810B50021044604F003
:103220000F0400F069FB0120A04010BD70B50446FA
:103230004B1C0E46218216D0C1F30310FFF75EFF30
:1032400005463046FFF7E8FF238A074A656103F029
:103250000F03206052F82330A36105F110031835E5
:103260006360A560E56070BD7CEF0308B0F91000F5
:1032700000F0C6BB10B58369446971B9216893FA3F
:10328000A3F2B2FA82F20320520000FA02F221EA1B
:10329000020293FAA3F3226010BD226893FAA3F10D
:1032A000B1FA81F193FAA3F30320490000FA01F186
:1032B000B3FA83F322EA01025B00012101FA03F36E
:1032C0001343236010BD08B5FFF77AFD01210020EC
:1032D00001F03AFEBDE80840FFF77EBD43692DE9E5
:1032E000F0413A4C0D46D90720602CD58168DFF8B3
:1032F000E8E08268364F8368364E01EA0E01714578
:1033000002EA070204BF4FF0010EC0F808E0BA421B
:1033100003EA060304BF4FF480778760B34204BF1B
:103320004FF4803686602C48814205D028498A4275
:1033300002D0284A934206D1284B294A1B6852F8EA
:103340002500012198472368DA685B69920708D055
:103350009F0706D5214B224A1B6852F82500002101
:103360009847236899695A695B698E070AD5900561
:1033700008D5190406D5194B194A1B6852F82500BF
:1033800005219847226897695669526917F0040722
:1033900006F4806609D046B1120406D50F4B104AD8
:1033A0001B6852F825000721984723685B695FB1C5
:1033B00056B11B0408D5094B094A1B6852F8250071
:1033C0000221BDE8F0411847BDE8F081A81F0020A8
:1033D000000300080000031003000004F01F002099
:1033E000E81F002000210148FFF778BF006400407B
:1033F000FFF7F8BFFFF7F6BF01210148FFF76EBFE7
:1034000000680040FFF7F8BFFFF7F6BF054B1868EC
:1034100030B901221A60044B044A1A60FFF770BCED
:10342000704700BFF41F002094440020000C0040AF
:1034300008B5044B1B680BB9FFF7E8FF024B586A4D
:1034400008BD00BFF41F0020000C0040044B054ADB
:1034500013605863DA6842F00202DA60704700BF16
:10346000000C004094440020034B044A1360DA68C7
:1034700022F00202DA607047000C00409444002001
:10348000034A044B13606FF002021A61704700BFD9
:1034900094440020000C004030B507EE101A284B71
:1034A00002681A60B5EEC07AF1EE10FA89B00546EE
:1034B00028D4F7EE007AB4EE677AF1EE10FAC8BFBE
:1034C000B0EE677AD5ED037AF8EE677A602267EEA0
:1034D000877A0192FCEEE77AAA68C5ED047A17EEC6
:1034E000903AB3FBF2F30293002303930593069300
:1034F000049307932B7D013B032B16D8DFE803F0E1
:103500001B0517199FED0F7ADCE70424224601A959
:103510000B4801F097FB10B10B48FEF721F96B7DCA
:10352000074821464BB101F0FDFC09B030BD08242D
:10353000ECE70C24EAE70024E8E701F0F1FBF4E70C
:10354000F81F00200000000065EF0308C368ABB15E
:1035500007EE903AD0ED046AB8EE677AF8EE666A44
:10356000C6EE877AB7EE007AF4EE477AF1EE10FAFB
:10357000C8BFF0EE477A17EE900A7047DFED017A88
:10358000F9E700BF000000002DE9F0474A4C02684F
:10359000226086B000230E4600930546FFF7D6FF53
:1035A000116A41F211131942074608D1116A40F21B
:1035B0004443194202BF136823F0010313606946B4
:1035C00001A801F04DFF3D482968002380465FFABD
:1035D00083F9013350F839208A42F8D111B93848BB
:1035E000FEF7BEF808EBC90898F8043053BB01F0A9
:1035F00007FF0090049800990123AB60314B30BB6A
:10360000B1FBF3F3013B636006F1FF3C2D4B6268B5
:10361000B1FBF3FE4FEA41080021B8FBF3F8C4F810
:103620000CC063468A464FF6FE79B3F5803F12D24E
:10363000B2F5803F0FD2BAF1000F00D06260F1B155
:10364000E3601CE001F0F4FE00900598D3E74A0027
:10365000B2FBF3F3D6E7AB685B00AB6030BB0EFBAD
:1036600003F2BCFBF3F34B4502F1FF3221D8B2F574
:10367000803F1ED314486260E360FEF771F80023B8
:103680000D482361A36001F093FA10B10E48FEF7D4
:1036900067F8EE6039462846FFF7FEFE2268136899
:1036A00043F00103136006B0BDE8F08708FB03F2A6
:1036B000D7E701218A46B8E7F81F0020BCEF0308CE
:1036C00050EF030840420F0065EF030830B50D4688
:1036D00004468DB06C492846FDF7E6FF6A49206034
:1036E0002846FDF7FDFFC0F30433684A23752368BD
:1036F000C0F34040934260754FF0000229D1009220
:10370000634A516C41F001015164526C02F00102B4
:103710000092009A5F4A934238D1002205925C4A97
:10372000516C41F002015164526C02F002020592A8
:10373000059A594A934238D100230A93544B1A6C84
:1037400042F080021A641B6C03F080030A930A9B08
:1037500059E0B3F1804F0BD101924D4A116C41F009
:1037600001011164126C02F001020192019AD1E789
:103770004A498B4229D10292454A116C41F002011B
:103780001164126C02F002020292029A444A9342BD
:1037900029D1002206923E4A516C41F48031516495
:1037A000526C02F480320692069A3E4A93422AD123
:1037B00000230B93364B1A6C42F480721A641B6C14
:1037C00003F480730B930B9B1DE037498B422BD185
:1037D00003922F4A116C41F004011164126C02F043
:1037E00004020392039A314A93424FF000023BD104
:1037F000274B07925A6C42F400325A645B6C03F414
:1038000000330793079B20492846FDF711FF00234B
:10381000E36023610123A580A36044F62061204674
:10382000FFF7B2FE0DB030BD21498B427FF472AF7D
:103830000492174A116C41F008011164126C02F0F5
:1038400008020492049A1B4A93427FF472AF002349
:1038500009930F4B1A6C42F040021A641B6C03F080
:1038600040030993099BCEE713498B42EBD1084BE8
:1038700008925A6C42F480225A645B6C03F48023F1
:103880000893089BBFE700BFFCF00308000001405D
:103890000038024000040140001C004000040040C9
:1038A000004001400020004000080040004401406A
:1038B000000C0040001800400048014030B5C368CB
:1038C00091FAA1F4B4FA84F491FAA1F10325B1FAC2
:1038D00081F1640005FA04F4490023EA040302FAC2
:1038E00001F11943C16030BD012A02D0022A18BF7C
:1038F0000022FFF7E3BF00002DE9F0413F4B00F04D
:103900000F08C0F3031053F828400E4601F00705D6
:10391000FFF7F4FB836894FAA4F1B1FA81F194FA09
:10392000A4F20327490007FA01F1B2FA82F223EA6E
:1039300001035200022101FA02F213438D42836017
:1039400028D0BD4241D0012D3FD00023026894FA17
:10395000A4F7B7FA87F794FAA4F14FF0030EB1FA7F
:1039600081F17F000EFA07F7490022EA07028B4037
:10397000013D1343012D036005D8436832074CBF56
:103980002343A3434360C6F301122146BDE8F0413F
:10399000FFF7AABFB8F1070FC6F3032717D9426A8A
:1039A000230A93FAA3F1B1FA81F193FAA3F34FF04A
:1039B0000F0EB3FA83F389000EFA01F19B0022EA9D
:1039C000010207FA03F3134343622B46BEE7026A80
:1039D00094FAA4F3B3FA83F394FAA4F14FF00F0E20
:1039E000B1FA81F19B000EFA03F3890022EA030287
:1039F00007FA01F313430362E7E700BF7CEF030814
:103A000038B500F00F02194BC0F3031053F82240F1
:103A10000D46FFF773FB04FB04F2016802EB42035F
:103A20000B40B3FBF2F3013B012B05D8EB1E022B3D
:103A3000436809D823434360032D08D1012221465E
:103A4000BDE83840FFF750BF23EA04034360012D6F
:103A5000F4D0052D01D0022D01D10222EFE721463D
:103A60000022BDE83840FFF729BF00BF7CEF030804
:103A700042681649920110B58B1804688C50826810
:103A80005A60C2689A600269DA6042691A61026A21
:103A90009A610022DA61DA849A84DA859A85B0F92B
:103AA0001A2001320AD108225A61184601F077FB28
:103AB00058B10748BDE81040FDF752BEB0F91820D4
:103AC00001320CBF04220C22EEE710BD382000208A
:103AD00024F00308F0B50E4687B004466D49304621
:103AE0001546FDF7E1FD6C4907462846FDF7DCFD6C
:103AF00001463846FDF7BAFD684B2060984200F059
:103B00009C8036D8A3F50063984269D003F58063A2
:103B100098427CD05F493046FDF78AFD5E492846D1
:103B2000FDF786FD721C03D001213046FFF768FFC8
:103B30006B1C03D001212846FFF762FF4FF4165398
:103B4000A3600023E36023616361236226836583AE
:103B50002046FFF78DFF2268514B9A4207D1514B07
:103B6000514801221A6021464C222BF0E9FF07B090
:103B7000F0BD4E4B98421DD003F58063984272D041
:103B8000A3F544439842C5D1494B1A6A42F48012C6
:103B90001A621A6A22F480121A62002204921A6CC3
:103BA00042F480121A641B6C03F480130493049B88
:103BB00004232AE03E4B5A6A42F010025A625A6AC3
:103BC000002122F010025A6200915A6C42F0100259
:103BD0005A645B6C616003F010030093009B99E7EB
:103BE000334B1A6A42F400321A621A6A22F4003223
:103BF0001A62002201921A6C42F400321A641B6CA1
:103C000003F400330193019B0123636082E7284B97
:103C10001A6A42F480221A621A6A22F480221A6214
:103C2000002202921A6C42F480221A641B6C03F484
:103C300080230293029B0223E7E71D4B1A6A42F49A
:103C400000221A621A6A22F400221A6200220392E7
:103C50001A6C42F400221A641B6C03F400230393D1
:103C6000039B0323D1E7124B5A6A42F020025A62A7
:103C70005A6A22F020025A62002205925A6C42F0DF
:103C800020025A645B6C03F020030593059B052317
:103C9000BBE700BFC4F2030858F20308004C004021
:103CA0000044004034200020D04400200010014097
:103CB000003802408160FFF7DBBE00004368034A22
:103CC0009B01D3581868C0F340107047382000207B
:103CD000416810B504462046FFF7F0FF0028FAD0EF
:103CE0008901034B5B585868C0F3080010BD00BF42
:103CF000382000204368034A9B01D3581868C0F35A
:103D0000C01070473820002038B544680546284662
:103D1000FFF7F0FF0028FAD0A401034B1B59C1F3B1
:103D20000801596038BD00BF3820002008B500F0F8
:103D300005F8BDE8084001F0FFBB0000174A18492C
:103D4000936803F00C03042B10B50DD0082B0DD095
:103D5000144B0B60114B144A9B68C3F30313D25CE2
:103D60000B68D3400B6010BD104BF2E754685068ED
:103D700052686302C2F3881200F03F004CBF0B4B45
:103D8000084BB3FBF0F35343044A5268C2F30142B9
:103D900001325200B3FBF2F3DBE700BF0038024010
:103DA000E40100200024F40030F3030800127A003C
:103DB0002DE9F041ACB0304B002101911A6C42F07A
:103DC00080521A641B6C03F080530193019B2B4BB0
:103DD00002911A6842F440421A601B6803F440439F
:103DE0000293029B012308930746C0B909934FF43D
:103DF000B47302244FF480050826119308A8072302
:103E00000E940F95109612941393149400F0E2FB05
:103E100018B901F045FB804618B1002028E00523C1
:103E2000E4E74FF4C0731C934FF48073159315A807
:103E30004FF000632A931B961D9600F0DBF80F23CA
:103E400003934FF4A053069305214FF4805303A826
:103E50000494CDF81480079301F01CFA0246002860
:103E6000DBD10FB94FF08062294601F0C7F901207C
:103E70002CB0BDE8F08100BF003802400070004067
:103E8000F0B595B00024234B00941A6C42F0805298
:103E90001A641B6C03F080530093009B1E4B01942B
:103EA0001A6842F440421A601B68089403F44043C5
:103EB0000193019B0E940323079310230B930F93FD
:103EC0004FF4B473022610930127062307A80A971C
:103ED0000D961196129300F07DFB0546B8B90F239D
:103EE00002934FF4A0530490059305214FF480539F
:103EF00002A80396069301F0CDF9024628B90146BF
:103F000001F07CF9384615B0F0BD2846FBE72046A5
:103F1000F9E700BF003802400070004008B50120FA
:103F2000FFF746FF18B9FFF7ABFF00B9FEE74FF008
:103F3000C06200210120BDE8084001F05FB9000027
:103F4000174AD2F8883010B543F47003154CC2F804
:103F500088302368002143F001032360A1602368B7
:103F600023F0847323F4803323600F4B6360236852
:103F700023F4802323604FF00063E16093600B4BD8
:103F80000B4A1A6001F0D8FAFFF7C8FF236A43F022
:103F900008032362236A23F00803236210BD00BFD5
:103FA00000ED00E00038024010300024E401002061
:103FB00080A8120130B50C4CA268A468B4F1006F5F
:103FC00013460CD1131F094C094A53F8045F42F8F9
:103FD000045FA242F9D1044A4FF0005393601030BD
:103FE00043F8201030BD00BF00ED00E0C00100200C
:103FF000FCFFFF1F2DE9F04F036813F0010685B0A9
:1040000004460BD0C849866BD1F88C2022F0C062E0
:104010003243B6FA86F6C1F88C20760999070BD59B
:10402000C148E16BD0F88C2022F0C0520A4300292D
:10403000C0F88C2008BF012613F0040512D0BA493D
:10404000256BD1F88C20B5F5801F22F4401242EA8E
:10405000050218BFB5FA85F5C1F88C2012BF6D09AD
:10406000002501261A070FD5AF48616BD0F88C20C8
:1040700022F440020A43B1F5800FC0F88C2000F012
:10408000BF81002908BF01259F0633D50023039374
:10409000A54BA64F1A6C42F080521A641B6C03F0B9
:1040A00080530393039B3B6843F480733B6001F0B0
:1040B00063FA80463B68D80540F1A4819A4F3B6F74
:1040C00013F4407340F0A981236C03F44072B2F5FD
:1040D000407F954A40F0C481916823F0704021F4FC
:1040E000F81120F4407001439160116FC3F30B038A
:1040F0000B4313672368DB0642BF8D4B94F85820AF
:104100001A6023681F0608D58749E06CD1F894200F
:1041100022F440020243C1F89420580608D582498F
:10412000A06CD1F8942022F080620243C1F8942060
:10413000D9050CD57C48616DD0F8942022F000623E
:104140000A43B1F1006FC0F8942008BF01259A0519
:1041500008D57549606CD1F8942022F08052024352
:10416000C1F894205F0500F17F81012E40F08A8123
:10417000704E6D4F0023336001F0FEF901968046CA
:104180003B68180100F10B822068C10701D5A36BC1
:1041900023B1820746D5E36B002B43D1624F4FF426
:1041A0004031D7F8842091FAA1FE4FF0706CBEFA2E
:1041B0008EFED7F884309CFAACF847F6C07BB8FA8C
:1041C00088F89BFAABFBBBFA8BFB91FAA1F1B1FA31
:1041D00081F19CFAACFC4FF0E04ABCFA8CFC9AFAF4
:1041E000AAFAA66802F4403206FA0BF96669BAFA2E
:1041F0008AFA22FA0EF206FA0AFA03F07063666887
:10420000013249EA0A0923FA08F322F0004249EA96
:10421000060903FA0CF3013A49EA03038A401343FF
:10422000C7F88430430703D5236BB3F5801F05D04F
:10423000070750D5636BB3F5800F4CD13A4F4FF45D
:104240004031D7F8842091FAA1FE4FF0E04CBEFA3D
:104250008EFED7F884309CFAACF847F6C07BB8FAEB
:1042600088F89BFAABFBBBFA8BFB91FAA1F14FF0FC
:10427000706AB1FA81F19AFAAAFABAFA8AFA9CFA41
:10428000ACFCA66802F4403206FA0BF9266922FA61
:104290000EF206FA0AFA03F0E04366680132BCFA4D
:1042A0008CFC49EA0A0923FA08F322F0004249EAA1
:1042B000060903FA0CF3013A8A4049EA030313435F
:1042C000C7F88430D7F88C20A36A22F01F02013B84
:1042D0001343C7F88C30460553D5236DB3F1005F07
:1042E0004FD1DFF844C04FF4403BDCF884209BFA08
:1042F000ABF84FF0E047B8FA88F8DCF8841097FA8A
:10430000A7F947F6C07AB9FA89F99AFAAAFABAFA75
:104310008AFA9BFAABFB4FF0706EBBFA8BFB9EFAEE
:10432000AEFEBEFA8EFE07E000380240007000408C
:10433000E01147426800474297FAA7F7E368A6688A
:104340005B08013B02F4403206FA0AFA03FA0BF367
:10435000666801F0E04122FA08F8B7FA87F743EA05
:104360000A0321FA09F908F10108334309FA07F7AA
:104370004FEA48081F4308FA0EFE47EA0E07CCF83A
:10438000847001052CD547F6C07797FAA7F74FF44C
:104390004033B7FA87F793FAA3F34FF07060B3FA9C
:1043A00083F290FAA0F04FF0E041B0FA80F091FA79
:1043B000A1F1E3685B08013B9340A26802FA07F7AA
:1043C00062683B431343226902FA00F06269B1FA62
:1043D00081F102FA01F103437B4A0B43C2F88430B6
:1043E000019A794E0123136001F0C6F8074633683D
:1043F0001A014BD401F0C0F8C01B0228F7D908E01D
:10440000012641E601F0B8F8A0EB080002287FF68B
:1044100051AE032005B0BDE8F08F226C02F440726B
:1044200093423FF451AE3B6F684A0121116023F47F
:104430004073002111603B673B6FD9077FF544AEA5
:1044400001F09AF841F2883980463B6F9A073FF5B0
:104450003BAE01F091F8A0EB08004845F5D9D8E74C
:10446000916821F4F8113FE65748216DD0F8942067
:1044700022F000520A43B1F1005FC0F894207FF4AB
:1044800074AE75E6B3F5006F3FF472AE012D40F0E7
:1044900084804F4D4C4E00232B6001F06DF8074691
:1044A00033689B0000F183802068460701D5236BA9
:1044B0001BB1010738D5636BB3BB43494FF440369A
:1044C000D1F8883096FAA6FE47F6C072BEFA8EFE84
:1044D00092FAA2F2B2FA82F796FAA6F64FF0706C50
:1044E000B6FA86F69CFAACFCE26903F44033BA40B3
:1044F000676ABCFA8CFC23FA0EF307FA0CF7013357
:104500003A4323F00043A769013B3A43B3401343C6
:10451000C1F88830D1F88C30E26A23F4F853013ABC
:1045200043EA0223C1F88C30C2052DD5636DB3F187
:10453000006F29D124494FF07060D1F8882090FA9B
:10454000A0F647F6C07EB6FA86F69EFAAEFE4FF4A7
:104550004033BEFA8EFE93FAA3F3B3FA83F790FAD0
:10456000A0F0236A5B08013BBB40E769A46907FA36
:104570000EF702F07062B0FA80F03B43F240234342
:1045800082401343C1F8883001232B6000F0F4FF10
:104590000D4C054623689B0010D500203AE700F03B
:1045A000EBFFA0EB080002287FF6EAAD31E700F050
:1045B000E3FFC01B02287FF673AF2AE700F0DCFFA1
:1045C000401B0228E6D924E700380240400E47424B
:1045D000700047420368F7B5DF07044638D4236804
:1045E0009E077AD423681E0700F1CF8023685D07F9
:1045F00028D500230193AF4BAF4D1A6C42F0805287
:104600001A641B6C03F080530193019B2B6843F4E5
:1046100080732B6000F0B0FF06462B68DA0540F18E
:10462000D680A64B227A1A70A368002B00F0DD809A
:1046300000F0A2FF9F4D064641F288372B6F9B0783
:1046400040F1CC80A269002A40F0DF8000201EE00B
:10465000984B9A6802F00C02042A10D09A6802F073
:104660000C02082A02D15B685D0208D4914A936863
:1046700003F00C030C2B0CD15368580209D58D4B59
:104680001B689903ABD56368002BA8D1012003B048
:10469000F0BD8B4B22791A7063687BB100F06CFF20
:1046A000844D064641F288372B689A0397D400F070
:1046B00063FF801BB842F7D90320E8E700F05CFFF6
:1046C0007C4D064641F288372B689B0387D500F066
:1046D00053FF801BB842F7D9EEE7764B9A6812F089
:1046E0000C0F10D09A6802F00C02082A02D15B6805
:1046F000580208D56F4A936803F00C030C2B16D1AF
:104700005368590213D46B4B1A68920702D5E268BA
:10471000012ABBD11868F82292FAA2F2B2FA82F109
:1047200022698A4020F0F8010A431A605AE7E268D9
:10473000644BDAB101221A6000F01EFF5D4D06469F
:104740002B689B070CD52968F82393FAA3F3B3FAD7
:1047500083F22369934021F0F80213432B6041E771
:1047600000F00AFF801B0228EAD9A5E71A6000F0D2
:1047700003FF504D06462B689F077FF533AF00F0CF
:10478000FBFE801B0228F6D996E762694E4B7AB190
:1047900001221A6000F0F0FE464D06466B6F980746
:1047A0003FF524AF00F0E8FE801B0228F6D983E72E
:1047B0001A6000F0E1FE3F4D06466B6F99077FF5EA
:1047C00015AF00F0D9FE801B0228F6D974E700F07F
:1047D000D3FE801B02287FF620AF6DE700F0CCFEF1
:1047E000801BB8427FF62AAF66E700F0C5FE314D68
:1047F000064641F288372B6F98077FF523AF00F00C
:10480000BBFE801BB842F6D956E72A4DAB6803F0D1
:104810000C03082B3FF43AAF2C4E0023022A3360DE
:1048200056D100F0A9FE07462B6899013CD447F603
:10483000C07E9EFAAEFE4FF44032BEFA8EFE92FA71
:10484000A2F24FF07060B2FA82F790FAA0F04FF047
:10485000E041B0FA80F091FAA1F1226AE3691343D2
:10486000626A02FA0EF21343A26A5208013ABA408F
:104870001343E26A02FA00F0226B0E4CB1FA81F1A6
:10488000034302FA01F10B436B600123336000F034
:1048900073FE054623689A013FF5D8AE00F06CFE22
:1048A000401B0228F6D907E700F066FEC01B02286D
:1048B000BAD901E700380240007000407038024069
:1048C0000238024000004742800E474260004742E3
:1048D00000F052FE04462B689B017FF5B7AE00F056
:1048E0004BFE001B0228F6D9E6E600BF2B4B9A6868
:1048F00002F00C02082A07D00C2A2CD0284B294899
:10490000042A18BF184670475A6859685B6811F442
:10491000800F02F03F0247F6C07191FAA1F0B0FAA1
:1049200080F003EA010323FA00F314BF1D481C487A
:10493000B0FBF2F05843194B4FF440325B6892FAE7
:10494000A2F2B2FA82F203F44033D34001335B00A7
:10495000B0FBF3F070475A6859685B6811F4800F38
:1049600002F03F0247F6C07191FAA1F0B0FA80F070
:1049700003EA010323FA00F314BF0A480848B0FB16
:10498000F2F05843054B4FF0E0425B6892FAA2F216
:10499000B2FA82F203F0E043D340D9E70038024094
:1049A0000024F40000127A00036A23F0010303627A
:1049B000036A426870B584690D6824F07304254366
:1049C0008C6823F0020323430C4CA04209D004F569
:1049D0008064A04205D042604A68856142630362F8
:1049E00070BDCC688E6923F0080323434C6922F420
:1049F0004072344323F004032243ECE700000140FB
:104A0000036A23F480730362036A426870B5C46961
:104A10000D6824F0730425438C6823F4007343EA83
:104A200004230E4CA04209D004F58064A04205D0B6
:104A300042604A68C561C263036270BDCC688E691A
:104A400023F4006343EA04234C6922F440523443C4
:104A500023F4806342EA0412EAE700BF0000014049
:104A6000036A23F48053036230B5046A4368C26961
:104A70000D6822F4E64242EA05228D6824F40054CF
:104A800044EA0534094DA84209D005F58065A842DD
:104A900005D043604B68C2610364046230BD4D6958
:104AA00023F4804343EA8513F3E700BF000001408D
:104AB000704770472E4A0368904212D0B0F1804F81
:104AC0000FD0A2F57C4290420BD002F5806290425A
:104AD00007D002F58062904203D002F578429042FE
:104AE0001DD14A6823F070031343214A904204D138
:104AF000CA6823F44073134328E0B0F1804FF7D025
:104B00001C4A9042F4D002F580629042F0D002F547
:104B100080629042ECD002F578429042E8D0164A8A
:104B20009042E5D002F580629042E1D002F58062C9
:104B30009042DDD0A2F598329042D9D002F5806241
:104B40009042D5D002F580629042D1D003608B684C
:104B5000C3620B688362064B984206D003F58063FC
:104B6000984202D00123436170470B690363F9E760
:104B700000000140000400400040014010B5044620
:104B8000A0B190F8393003F0FF021BB980F838204B
:104B9000FFF78EFF022384F839302068211DFFF7CC
:104BA00089FF012384F83930002010BD012010BD99
:104BB00010B50446A0B190F8393003F0FF021BB9DC
:104BC00080F83820FFF775FF022384F83930206819
:104BD000211DFFF76FFF012384F83930002010BD3D
:104BE000012010BD036A23F010030362036A4268C8
:104BF00070B584690D6824F4E64444EA05258C68A0
:104C000023F0200343EA04130D4CA04209D004F51D
:104C10008064A04205D042604A6885618263036275
:104C200070BDCC688E6923F0800343EA04134C699D
:104C300022F44062344323F0400342EA8402EAE76C
:104C40000000014038B590F83830012B04464FF091
:104C5000020025D0012384F8383084F839000C2A6A
:104C600018D8DFE802F0071717171E1717172F17A6
:104C7000171740002068FFF797FE236809699A69B3
:104C800042F008029A619A6922F004029A619A69D4
:104C90000A439A610123002084F8393084F83800EF
:104CA00038BD2068FFF79EFF236809699A6942F4BE
:104CB00000629A619A6922F480629A619A6942EA72
:104CC0000122E6E72068FFF79BFE23680969DA699D
:104CD00042F00802DA61DA6922F00402DA61DA6984
:104CE0000A43DA61D6E72068FFF7BAFE236809694C
:104CF000DA6942F40062DA61DA6922F48062DA6128
:104D0000DA6942EA0122ECE7036A10B501248C401B
:104D100023EA04030362036A8A401A43026210BD55
:104D200010B5044601220068FFF7EEFF2368084A29
:104D3000934203D002F58062934203D15A6C42F44D
:104D400000425A641A6842F001021A60002010BD45
:104D500000000140FFF7E4BF2DE9F04F85B00B687C
:104D6000DFF8A081654ADFF8A091019300234FF09E
:104D7000010E019C0EFA03FE0EEA0406B64540F051
:104D8000AA804C6824F01007022F16D14FEAD30AEC
:104D900000EB8A0A03F0070BDAF820504FEA8B0B7E
:104DA0004FF00F0C0CFA0BFC25EA0C0C0D6905FA00
:104DB0000BF545EA0C05CAF820504FEA430A0325D3
:104DC000D0F800B005FA0AF5ED4304F0030C0BEA45
:104DD000050B0CFA0AFC013F4CEA0B0C012FC0F842
:104DE00000C011D8876807EA050BCF6807FA0AFCEC
:104DF0004CEA0B078760476827EA0E0EC4F30017DA
:104E00009F4047EA0E074760C7683D408F6807FA32
:104E10000AF73D43C560E5005DD54FF0000BCDF8C6
:104E20000CB0D8F84470364D47F48047C8F8447049
:104E3000D8F8447007F480470397039F23F00307D3
:104E400007F1804707F59C3703F0030CD7F808A05B
:104E50004FEA8C0C4FF00F0E0EFA0CFEA8422AEA15
:104E60000E0E3FD005F58065A8423DD005F5806562
:104E7000A8423BD005F58065A84239D005F580658C
:104E8000A84237D0484537D005F50065A84214BF81
:104E90000825062505FA0CF545EA0E05BD601568DE
:104EA000F74314F4803F0CBF3D403543156055680F
:104EB00014F4003F0CBF3D4035435560956814F431
:104EC000801F0CBF3D4035439560D568A40254BF98
:104ED0003D403543D5600133102B7FF448AF05B01A
:104EE000BDE8F08F5D46D5E70125D3E70225D1E780
:104EF0000325CFE70425CDE70525CBE7003C01409E
:104F0000000002400038024000140240036A10B55D
:104F100004248C4023EA04030362036A8A401A4390
:104F2000026210BD10B5044604220068FFF7EEFFD0
:104F300023685A6C42F400425A641A6842F0010233
:104F40001A60002010BD0000064A1369012923F0F1
:104F50000403136101D130BF704740BF20BF20BFA1
:104F6000704700BF00ED00E02DE9F0470668C26819
:104F70003369C16923F440531343336104468368A2
:104F80000069F2680343606922F41642034322F089
:104F90000C020B431343F3607369A26923F440735B
:104FA0001343B1F5004F73617A4B7CD19E4203D01D
:104FB00003F580639E4244D100F03AFA192505FBBF
:104FC00000F360684FF064094000B3FBF0F3B3FBFB
:104FD000F9F34FEA031800F02BFA636868435B00AB
:104FE000B0FBF3F700F024FA636868435B00B0FBA2
:104FF000F3F3B3FBF9F309FB1373DB003233B3FBB9
:10500000F9F35B0003F4F87700F012FA6268684382
:105010005200B0FBF2FA00F00BFA636868435B00E1
:10502000B0FBF3F3B3FBF9F309FB13A3DB0032335B
:10503000B3FBF9F303F0070343443B44B360BDE81B
:10504000F08700F0DDF9192505FB00F360684FF0EB
:1050500064094000B3FBF0F3B3FBF9F34FEA031824
:1050600000F0CEF9636868435B00B0FBF3F700F033
:10507000C7F9636868435B00B0FBF3F3B3FBF9F374
:1050800009FB1373DB003233B3FBF9F35B0003F46A
:10509000F87700F0B5F9626868435200B0FBF2FAA5
:1050A00000F0AEF9B9E79E4202D03B4B9E4240D1A0
:1050B00000F0BEF9676819254FF0640905FB00F39D
:1050C000BF00B3FBF7F3B3FBF9F31F0100F0B0F936
:1050D000636868439B00B0FBF3F800F0A9F96368CC
:1050E00068439B00B0FBF3F3B3FBF9F309FB1383B5
:1050F0001B013233B3FBF9F303F0F00800F098F929
:10510000626868439200B0FBF2FA00F091F96368BC
:1051100068439B00B0FBF3F3B3FBF9F309FB13A364
:105120001B013233B3FBF9F303F00F0343EA080327
:1051300083E700F065F9676819254FF0640905FBFE
:1051400000F3BF00B3FBF7F3B3FBF9F31F0100F06B
:1051500057F9636868439B00B0FBF3F800F050F91F
:10516000636868439B00B0FBF3F3B3FBF9F309FBFF
:1051700013831B013233B3FBF9F303F0F00800F0A3
:105180003FF9626868439200B0FBF2FA00F038F928
:10519000BDE700BF0010014000140140704710B58A
:1051A000044640B390F8393003F0FF021BB980F891
:1051B0003820FFF7F3FF2268242384F83930D368BE
:1051C00023F40053D3602046FFF7CEFE23681A690C
:1051D00022F490421A615A6922F02A025A61DA686E
:1051E00042F40052DA6000202023E06384F8393072
:1051F00084F83A3010BD012010BD000070B50D4696
:1052000088B01646204CF0B90190236B43F001039F
:105210002363236B059003F001030193019B079027
:105220004FF4807303930223049303A903231748C5
:105230000693FFF791FDA16821F0EC61314329430A
:10524000A16008B070BD00230293226B104842F0A9
:1052500004022263226B059302F004020292029A76
:1052600007934FF4007203920222049203A90322CF
:105270000692FFF771FDA36845EAC60123F0784561
:105280000D43A560DDE700BF00380240000002408A
:1052900000080240564B1A6802F00F028A422DE9BC
:1052A000F04105460E4630D32A68940737D4D0071C
:1052B0003DD44F4B1A6802F00F029642C0F088802E
:1052C0002A68510700F18C80130707D5494A2969DC
:1052D000936823F4604343EAC1039360FFF706FB3E
:1052E000444BF0229B6892FAA2F2B2FA82F203F0E7
:1052F000F003D340404AD35CD840404B18600F20A5
:10530000FDF7FEFC0020BDE8F081CAB21A701B68F0
:1053100003F00F039942C7D00120BDE8F081354961
:10532000A8688B6823F0F00303438B60BFE76A68CB
:10533000304B012A1ED11B6813F4003FECD02D4CDA
:10534000A36823F003031343A36000F015F96B680F
:10535000012B074641F2883816D1A36803F00C03ED
:10536000042BA6D000F008F9C01B4045F5D9032056
:10537000BDE8F081911E01291B6802D813F0007F5F
:10538000DCE713F0020FD9E7022B0AD1A36803F080
:105390000C03082B8DD000F0EFF8C01B4045F5D969
:1053A000E5E7032B0FD1A36803F00C030C2B80D08F
:1053B00000F0E2F8C01B4045F5D9D8E700F0DCF872
:1053C000C01B4045D3D8A36813F00C0FF6D170E78B
:1053D000F2B21A701B6803F00F039E429CD16FE774
:1053E0000449E8688B6823F4E05303438B606BE760
:1053F000003C02400038024040F30308E401002072
:10540000084B4FF4E0529B6892FAA2F2B2FA82F291
:1054100003F4E053D340044AD35C044A1068D840F4
:10542000704700BF0038024040F30308E401002049
:10543000084B4FF460429B6892FAA2F2B2FA82F2F1
:1054400003F46043D340044AD35C044A1068D84054
:10545000704700BF0038024040F30308E401002019
:105460000F2303600B4B9A6802F0030242609A68B4
:1054700002F0F00282609A6802F4E052C2609B6817
:10548000DB0803F4E0530361034B1B6803F00F03D5
:105490000B60704700380240003C0240704700003B
:1054A00037B500230193224B1A6C42F080521A64E4
:1054B0001B6C03F080530193019B4FF4803393FAEC
:1054C000A3F3B3FA83F303F1845303F560339B0032
:1054D00001221A6000F050F8164C05466368DA03A2
:1054E00015D54FF4003393FAA3F3B3FA83F303F122
:1054F000845303F560339B0001221A6000F03CF8EE
:105500000C4C054663689B030AD5002006E000F0BA
:1055100033F8401BB0F57A7FE0D9032003B030BDEB
:1055200000F02AF8401BB0F57A7FEBD9F5E700BF11
:10553000003802400070004008B50A4B1A6842F477
:1055400000721A601A6842F480621A601A6842F4A3
:1055500080721A600F20FDF7D3FBFFF79FFF00203A
:1055600008BD00BF003C0240024A136801331360CB
:10557000704700BF1C450020014B1868704700BFF2
:105580001C450020C36810B504460BB19B689847C2
:10559000204610BD0368184708B10B6803607047C8
:1055A0007047884238B504460D460AD0FBF733FEF3
:1055B0003CB1EB681BB15B68294620469847EB6815
:1055C000E360204638BD704783681A6843681A4212
:1055D00014BF01200020704738B504460D46FCF783
:1055E00095F82946201DFDF741FEBDE83840FCF73F
:1055F000A3B8000010B5084B044640F8203BFDF767
:1056000053FD04F14000FBF706FE04F13000FBF708
:1056100002FE204610BD00BF64F3030810B5044627
:10562000FFF7E8FF204600F0D9FA204610BD000041
:105630002DE9F04305461F4B45F8043B044685B071
:105640000E4604F120071C22002128462AF076FB92
:105650001022002138462AF071FB0023E363E36443
:105660006946DFF85890DFF85880CDF8009004F1D3
:105670003000CDF80C80FFF794FF6846FBF7CBFDB8
:10568000694604F14000CDF80090CDF80C80FFF79A
:1056900088FF6846FBF7BFFD2346074A3146384678
:1056A000FDF74EFC28463146FBF77CFF204605B04F
:1056B000BDE8F08364F3030863570008C75500088A
:1056C00050F303087FB50E460446FCF71FF8F56853
:1056D00004F1300020345DB13146FFF762FF012252
:1056E00001212046FDF7D0FBFCF726F804B070BD81
:1056F000054B00936946054B0393FFF752FF68463D
:10570000FBF789FD2A46EBE7C755000850F303086D
:105710007FB50E460446FBF7F9FFF56804F140003B
:1057200020345DB13146FFF73CFF012202212046C3
:10573000FDF7AAFBFCF700F804B070BD054B009321
:105740006946054B0393FFF72CFF6846FBF763FDA3
:105750002A46EBE7C755000850F30308C3681B68E7
:105760001847012908B502D0022904D008BD3030FD
:10577000FFF7F4FF08BD4030FAE710B50446FBF729
:10578000C5FF23682BB9E068FBF74FFF012360607A
:105790002360BDE81040FBF7CFBF38B50546FBF7E7
:1057A000B5FF2C6824B1E868FBF73FFF6C68041B69
:1057B000FBF7C2FF204638BD38B50546FBF7A6FF0C
:1057C0002846AC68FFF7E9FF0444FBF7B5FF204625
:1057D00038BD10B50446FBF799FFE068FBF725FFDD
:1057E00000236060A360BDE81040FBF7A5BF002365
:1057F00010B50360436083600446FBF7E9FEE06098
:105800002046FFF7E6FF204610BD38B5044648B1F4
:105810005830A04206D0A0F12C051438FFF7B2FE94
:105820002846F6E7204638BD70B50E4C20460025C8
:1058300028263246294640F8045B2AF07FFA324691
:10584000294604F13000E5622AF078FAA565204681
:10585000E565054A84F860500449BDE8704000F0F1
:1058600065B900BF38220020C80100200B5800088D
:1058700029F0BEBD2AF002BB28F0C8BE28F0AABBA2
:1058800070B50546FDF7D4FD4FF47A7495FBF4F43A
:10589000002C064602DDFBF733FF28B9FDF7C8FDF3
:1058A000801BA842FAD370BD204600F0A1F9F5E7AD
:1058B0004FF47A735843FFF7E3BF0000014B1868B9
:1058C000FCF768BDF443002008B5084B1B685BB9C2
:1058D000022107480322FEF7FDF84FF41651044851
:1058E000BDE80840FEF7E6B908BD00BF342000203F
:1058F000D0440020022810B5044601DC002010BD71
:1059000028F098FB09230360033C094B53F824005B
:10591000002243F8242040B103681B699847041E05
:10592000ECDA28F087FB644204604FF0FF3010BDD2
:105930009C220020F8B505460E46144628F07AFB56
:105940000923022D03600FDC124B1B680BB9FFF714
:10595000BBFF35463719104EBD4215D015F8011B57
:105960003046FEF7D1F9F7E7033D0C4B53F825001D
:1059700060B103682246DB6831469847041E03DAAB
:1059800028F058FB634203602046F8BD4FF0FF3417
:10599000FAE700BF34200020D04400209C220020E1
:1059A00070B504460D46164628F044FB0923022C28
:1059B00003600BDC0F4B1B680BB9FFF785FF0E482C
:1059C000FEF786F901242870204670BD033C0B4B7E
:1059D00053F8240058B1036832469B68294698471B
:1059E000041EF1DA28F026FB63420360ECE74FF077
:1059F000FF34E9E734200020D04400209C2200201E
:105A000010B5044628F016FB0923022C036010DDB4
:105A1000033C0A4B53F8240040B103689B69984744
:105A2000041E08DA28F006FB644204604FF0FF30E1
:105A300010BD012010BD002010BD00BF9C22002021
:105A400070B504460D46164628F0F4FA0923022CD8
:105A500003600BDD033C084B53F8240040B103689E
:105A600032462946DB69BDE870401847002070BD0A
:105A70004FF0FF3070BD00BF9C220020022808B507
:105A800004DC4FF400534B60002008BD28F0D2FA2C
:105A9000092303604FF0FF3008BD00000148FBF709
:105AA0005FBE00BF6CF3030808B5FEF73FF9FBF7D4
:105AB000D5FE08BD704708B5FFF7FCFFBDE80840FC
:105AC000FAF76ABD0C4A136810B51844EFF3088161
:105AD000884205D3094B0C221A604FF0FF3010BDED
